:020000040800F2
:10000000B083002041020008113C0008C9380008F4
:100010000D3C0008E90F00081D6100080000000009
:100020000000000000000000000000007D3E00080D
:100030001911000800000000793E0008F13E000898
:100040005B0200085B0200085B0200085B0200081C
:100050005B0200085B0200085B0200085B0200080C
:100060005B0200085B0200085B0200085B020008FC
:100070005B0200085B0200085B0200085B020008EC
:100080005B0200085B0200085B0200085B020008DC
:100090005B0200085B0200085B0200085B020008CC
:1000A0005B0200085B0200085B0200085B020008BC
:1000B0005B0200085B0200085B0200085B020008AC
:1000C0005B0200085B0200085B0200085B0200089C
:1000D0005B0200085B0200085B0200085B0200088C
:1000E0005B0200085B0200085B0200085B0200087C
:1000F0005B0200085B0200085B0200085B0200086C
:100100005B0200085B0200085B0200085B0200085B
:100110005B0200085B020008A93F00085B020008C0
:10012000411000085B0200085B0200085B02000847
:100130005B0200085B0200085B0200085B0200082B
:100140005B0200085B0200085B0200084D3C0008EF
:100150005B0200085B0200085B0200085B0200080B
:100160005B0200085B0200085B0200085B020008FB
:100170005B0200085B0200085B0200080000000050
:100180005B0200085B02000800F002F800F049F88A
:100190000AA090E8000C82448344AAF10107DA45E2
:1001A00001D100F03EF8AFF2090EBAE80F0013F0EB
:1001B000010F18BFFB1A43F00103184700C10000EC
:1001C00020C10000103A24BF78C878C1FAD852077D
:1001D00024BF30C830C144BF04680C6070470000C1
:1001E0000023002400250026103A28BF78C1FBD840
:1001F000520728BF30C148BF0B607047662908F01E
:10020000E984002070471FB508F0D1FC00F006FC1F
:1002100004000020002108F007F8E0601FBD10B5C1
:1002200010BD00F003FD1146FFF7EDFF07F084FB62
:1002300000F021FD03B4FFF7F2FF03BC05F0ACFFB3
:100240000948804709480047FEE7FEE7FEE7FEE76A
:10025000FEE7FEE7FEE7FEE7FEE7FEE704480549A6
:10026000054A064B70470000953F000889010008C9
:10027000B0770020B0830020B07F0020B07F002046
:10028000704753EA020C00F069802DE9F04B4FF003
:100290000006002B1FBFB3FA83F503FA05F424FA16
:1002A00005F65E4012BF1643B2FA82F502FA05F473
:1002B000C5F120051EBF22FA05FC44EA0C042035D6
:1002C00056EA044C4FEA144418BF641C4FF000086F
:1002D0004FF00009904271EB030C39D3002919BF8C
:1002E000B1FA81F701FA07F6B0FA80F700FA07F6DB
:1002F000C7F120071EBF20FA07FC46EA0C0620378C
:10030000B6FBF4FCA7EB0507103F07F01F0BCBF182
:1003100020062CFA06F60CFA0BFB44BFB346002667
:10032000202FA4BF5E464FF0000B5BEA060C08BF0F
:100330004FF0010B19EB0B0948EB0608ABFB027CF5
:1003400006FB02CC0BFB03CCC01B71EB0C01C1E71D
:100350000B46024641464846BDE8F08B13B54FF0C8
:1003600000004FF00001AFF30080BDE81C40704773
:100370000FB4044910B503AA029800F03DFB10BC6D
:100380005DF814FB7C1500202DE9F05F89460446DA
:100390004FF0000ADFF874B1FB44C0F820A02046FB
:1003A000E1688847002874D0252806D0D4E90121C7
:1003B0009047206A401C2062F1E700265F462046F5
:1003C000E16888472028054607DB312D05D27819DA
:1003D00010F8200C08B10643F1E7B00701D526F06C
:1003E0000406C4F81CA00027C4F818A02A2D09D0C0
:1003F000284607F0F3FE38B304EB8708303DC8F811
:10040000185019E059F8041B204604EB870291614B
:10041000E1688847012F054618D1E069002820DAF5
:1004200026F020061DE0D8F8180000EB800005EB50
:1004300040003038C8F818002046E1688847054673
:1004400007F0CCFE0028EED1012F0AD02E2D08D1C6
:100450002046E16888477F1C0546022F46F02006AB
:10046000C4DBA069002803DA404246F00106A0611F
:10047000F00701D026F010066C2D0BD0682D09D0A6
:100480004C2D39D06A2D35D0742D35D07A2D33D0FE
:1004900016E038E0E1682F4620468847B842054616
:1004A00009D16C2F26D04FF48060E16806432046C6
:1004B0008847054604E06C2F1AD04FF4807006433D
:1004C0000DB3A5F14100192802D8203546F4006685
:1004D0004A462946204626604E46FFF78FFE80B1E9
:1004E00001280BD0F61D26F0070000F1080956E799
:1004F0004020E4E78020D8E70020D6E706F1040991
:100500004DE7284652E7206ABDE8F09F3C8800008E
:1005100010B5044603E007F003FA401C09D014F8B4
:10052000010B05490028F6D1BDE810400A2007F06C
:10053000F7B94FF0FF3010BD7C1500204FF00002DE
:1005400000B5134694469646203922BFA0E80C50C9
:10055000A0E80C50B1F12001BFF4F7AF090728BFA4
:10056000A0E80C5048BF0CC05DF804EB890028BF20
:1005700040F8042B08BF704748BF20F8022B11F049
:10058000804F18BF00F8012B7047704770477047C5
:10059000704710B500F046FA006810BD10B504466B
:1005A00000F040FA046010BD70472DE9FF4F0C4683
:1005B0001E464FF0FF378BB0D2E90001DDF86080B6
:1005C0000A908A46C1F30A5505B93D4600210846FE
:1005D0004FF00000BAF1000F00F4400005DA00EB24
:1005E00080004FF4400101EA50004FEA9059B9F100
:1005F000010F00DDB9460A9850EA4A000ED044F6D1
:100600001050A5F2FF3545432F14B8F1000F1ED04E
:100610007542291E1EDDC9F100021CE0B8F1010F70
:100620004FF0000001D0302103E0F24305E02154F7
:10063000401CB042FBDB30460022002121540B99C4
:10064000C1F80880C1E900200FB0BDE8F08FBD1BE4
:100650006D1CDEE74A4600DA694206A800F06CFA33
:1006600006AB93E8070003AB83E8070050460A99FE
:1006700007F0D4F98DE80700A0F500501F3800906E
:100680000398002D0ADD42F21F014A460844002368
:1006900003A90390684607F03DFC09E0A0F500506F
:1006A0004A461F38002303A90390684607F047FC19
:1006B0008DE807000004000C03D04FF0FF30410824
:1006C00000E01046B8F1000F03D00022009215465A
:1006D0001EE0751E05D400F0A9F9303262556D1E7A
:1006E000F9D5B3460122084302D000227F1C04E062
:1006F0002078302801D100227F1E002A099784D05B
:100700001DE0112D07DA00F091F9303262556D1CB1
:1007100050EA0102F5D1084302D00098C8B10EE0BA
:100720000021681E05E0235C625C63542254401E75
:10073000491C8142F7DBAB46A81B401E09900020F4
:1007400004F80B000B98099AC0F80880C0E9002B48
:100750007AE711264FF0000857E72DE9F04F884659
:100760000446D21D22F0070191B0D1E90001CDE984
:100770000A0107F01BFD02460B98C00F01D02D2087
:1007800007E02068810701D52B2002E0202101EA43
:10079000C000032A099001D0072A05DB0346414621
:1007A000204600F089F90BE12078800601D5E06948
:1007B00000E00620B8F1650F814606D0B8F1660F5B
:1007C00018D0B8F1670F70D131E00020B9F1110FE6
:1007D000009001DB112301E009F101030AAA01A93C
:1007E0000CA8FFF7E2FEDDE90C70002609F1010517
:1007F000834647E001204B4600904FF000470AAA8D
:1008000001A90CA8FFF7D1FEDDE90DB00C995D46FA
:10081000002610B909F101000D18B9EB050003D449
:10082000C0F1FF3609F10105A5EB09002BE0B9F194
:10083000010F01DA4FF001090020B9F1110F00900A
:10084000484601DD112300E003460AAA01A90CA8CD
:10085000FFF7ABFEDDE90C704D460026834620789D
:1008600000070AD4AB4500DA5D4601A8012D04DD7E
:10087000411911F8011C302907D04F4502DA17F150
:10088000040F04DA012082460FE06D1EEEE7002F10
:1008900002DCED1B3E4403E0781CA84200DD7D1C19
:1008A000B81B00F1010A4FF000472078000703D47D
:1008B000AA4501DB4FF0FF3A0021B7F1004F0DF1DF
:1008C00043088DF8431024D002202B23002F01DA97
:1008D0007F422D230A21021EA0F1010000DC5FB13E
:1008E00097FBF1FC97FBF1F201FB1C7C17460CF126
:1008F000300C08F801CDEEE7A8F101000370218863
:10090000090501D5452100E06521A0F1010800F8A5
:10091000011C09980FA9A1EB0807FF1D00B10120D8
:10092000411901EBEA70A1693844081A401EA06120
:100930002078C00602D42046AFF30080099828B181
:10094000D4E901219047206A401C20622078C0062B
:1009500022D52046AFF300801EE0002E04DBB34515
:1009600002DD01A8805D00E03020D4E9012190473C
:10097000206A401C2062761CAAF101005FEA000A8E
:100980000AD100F04BF8C0680168405CD4E901214D
:100990009047206A401C2062281EA5F10105DCDC7E
:1009A00007E0D4E9012118F8010B9047206A401CA8
:1009B0002062381EA7F10107F3DC2046AFF3008068
:1009C000032011B041E6000001694A1C0261087869
:1009D000704700B58FB0CDE901310021059105497F
:1009E0007944CDE9031011466846FFF7CDFC0FB0FE
:1009F00000BD0000E5FFFFFF074B70B50D467B44CF
:100A0000FFF7E7FF0446284600F008F910B14FF061
:100A1000FF3070BD204670BD1F6F0000004870475A
:100A20001801002000487047F800002030B5B0F1F0
:100A30000A0271F100034FEA900E4EEA817EB0EB9C
:100A40000E0061EB91014FEA101E4EEA017E10EBA1
:100A50000E0041EB11114FEA102E4EEA016E10EB21
:100A60000E0041EB11214FEA104E4EEA014E10EB01
:100A70000E0041EB1141401841F100014FEAD00056
:100A800040EA41704FEAD1014FEA810444EA907490
:100A900010EB800544EB01046D1944EB0404521B78
:100AA000A3414FF0000348BF0A3200D530BD401CBF
:100AB00041F1000130BD00002DE9F0411F46044620
:100AC00003260168072A01F4006004DB08B116A5BB
:100AD00005E016A503E008B115A500E015A521F075
:100AE00010002060A069C01EA0610FB1401EA0616F
:100AF0002046AFF300804FB1D4E90121384690473A
:100B0000206A401C2062C01C206206E0206AFAE7CE
:100B1000D4E9012115F8010B9047761EF8D2204642
:100B2000AFF30080BDE8F0814E414E006E616E0073
:100B3000494E4600696E66002DE9F047814616462B
:100B40008AB0354878440DC88DE80D0032487844A5
:100B5000801C03AC0DC884E80D0041F69B300844AE
:100B6000372190FBF1F290FBF1F5A5F1800501FB37
:100B700012041B3C02D56442012000E00020DFF893
:100B800098A080460027FA44AAF1BE0A0EE0E007CA
:100B90000AD03246684607EB470101230AEB810180
:100BA00007F0CDF98DE8070064107F1C002CEED112
:100BB000194F7F44AE3F19E0E80715D007EB04104A
:100BC0000DF1180A90E80E008AE80E00C068F042A5
:100BD00001D1981908903246012306A903A807F00D
:100BE000AEF903AB83E807006D10641C002DE3D160
:100BF0004FF0010332466946B8F1000F03A802D056
:100C000007F088F901E007F09AF9C9E90001C9F88D
:100C100008200AB0BDE8F08720810000007B00F0CA
:100C20008000704700487047F80000207546FFF7C5
:100C3000F9FFAE4605006946534620F00700854699
:100C400018B020B5FFF70AFBBDE820404FF00006C2
:100C50004FF000074FF000084FF0000BAC46ACE837
:100C6000C009ACE8C009ACE8C009ACE8C00921F093
:100C700007018D46704710B50446AFF3008020464B
:100C8000BDE81040FFF7D6BA30B44FF0013C50F841
:100C9000042B51F8043BCCFA52F4D51A20D1FCB9FC
:100CA00050F8042B51F8043BCCFA52F4D51A17D162
:100CB000B4B950F8042B51F8043BCCFA52F4D51ACD
:100CC0000ED16CB950F8042B51F8043BCCFA52F415
:100CD000D51A05D1002CDAD030BC4FF00000704797
:100CE00029BAB1FA81F111F01801D1F12000844044
:100CF000F2D1CA40CB4012F0FF0213F0FF0330BC28
:100D0000D01A70470146886B036C026C13F0500FC9
:100D100007D0D20648BF00F01DBC806BC26C0846ED
:100D2000104742F40071016401688A6812F0405F64
:100D30001CD1027E002A18BF00F066BBCA6A12F4FA
:100D4000700F1CBF8A6812F4806F0FD14A6822F0BE
:100D500020024A60016C21F480710164016C11F47D
:100D6000805F02BF016C41F00101016400F04CBBE7
:100D7000806B40210164416C41F00401416400F04A
:100D8000E9BB0000806B00F0E3BB000042F20431DD
:100D9000C4F201010A6822F440320A6042680B681A
:100DA0001A430A6001684A6822F480724A60016846
:100DB00002694B6843EA02224A6001684A6822F0ED
:100DC00040724A60016882684B681A434A60016851
:100DD0008A6822F400628A600168C2688B681A43DC
:100DE0008A600168826A8B6823F070638B600121DE
:100DF000C0F600718A4204D101688A6822F040522C
:100E00000DE00168826A8B681A438A6001688A680B
:100E100022F040528A600168C26A8B681A438A6075
:100E200001688A6822F002028A60017E0268936883
:100E300043EA4101916090F8203001684A689BB113
:100E400042F400624A6001684A6822F460424A60E3
:100E50000168426A4EF20003CFF6FF7303EB4232A1
:100E60004B681A434A6002E022F400624A6001685B
:100E7000CA6A22F47002CA620168C2690023CFF60E
:100E8000F07303EB0252CB6A1A43CA6201688A68A4
:100E900022F400728A6090F830100268936843EA86
:100EA0004121916001688A6822F480628A60016849
:100EB00040698A6842EA802088607047F0B581B056
:100EC0000446254655F8140B00F05AF941F2240760
:100ED000E31943F6D056C2F2000630464FF4806163
:100EE0002A4605F0FFFEE05900EB400106EB8101C8
:100EF00006EB800090ED000A91ED001A80EE010AE9
:100F000001B0F0BD00000000F0B581B0044600F073
:100F100005F9218B71B104F11C00002246F2AC737B
:100F2000C2F2000350F8221043F822100132218B44
:100F30008A42F7DBA9B1002046F2AC72C2F200028D
:100F4000BEEE000A94ED021A94ED032A92ED003AE7
:100F500033EE411A02EE001AA2EC011A0130884267
:100F6000F0DB41F22807E21946F2AC70C2F2000051
:100F700006F01CFCE05907F0C9FC05460E46E06887
:100F800007F0C4FC9FED0A0B53EC102B07F0C0FBDD
:100F900002460B462846314607F09AF907F05AF9FF
:100FA000E05100EE100A01B0F0BD00BF00BF00BF6D
:100FB000000000000000E03F80B540F81C1B4FF42B
:100FC0008051FFF7BBFA80BD10B5044602F060FF08
:100FD000204600F033F9204600F03CF92046BDE8F9
:100FE000104000F043B90000FEE700000020704709
:100FF0000020704710B545F6FC54C2F2000440F6DC
:101000007C51C2F200012046002203F0C7FB40F2EF
:101010007C51C2F20001204603F0B2FB002010BD5B
:1010200010B5014645F6FC54C2F20004204603F018
:10103000A7FB204603F078FB002010BD002070477E
:1010400046F22010C2F2000000F0D6BBD0F800C07B
:101050006FF00F0252FA8CF24AF6AB23CAF6AA23BB
:10106000A2FB0331090907A35B5C40F2FF312CEAC4
:1010700001015F2A88BF41F00401C0E91613084648
:10108000704700BF00061016000610168269816ABC
:10109000B2F5005F06D06AB9022912D0012915D035
:1010A000D9B90EE0032918D8DFE801F0020B0210CD
:1010B0000120704703293CBF012070471CBF00205E
:1010C000704790F82F0000F001007047C06AA0F14F
:1010D000C070B0FA80F040097047002070470000EF
:1010E00080B5D0F800C0DCF800E02EF4802ECCF8FB
:1010F00000E0D0F800C0CCF80430D0F800C083681D
:10110000402B0B4608BF1346CCF8083008BF0A46F0
:101110000068C26080BD000070470000B0B50446A2
:10112000206800F02DF841F22400251804F1140283
:1011300043F6D050C2F200004FF480612B4605F018
:10114000D1FD95ED000A9FED091A9FED092AB8EE31
:10115000400A20EE010A82EE001ABDEEC11A84EDAB
:10116000040A11EE100A2083B0BD00BF0050C34333
:101170000050C348EFF3108072B600BFFEE70000D6
:10118000B0B541F6D051C2F2000104310022002373
:1011900030F8135000EE105AB8EE400A01ED010A83
:1011A0000A6008310133B3F5806FF1D149F6A82008
:1011B000C0F6000041F6D055C2F2000529460022D3
:1011C000012305F00BF843F6D054C2F20004284680
:1011D00021464FF4806205F011FD04209FED070ABF
:1011E000211891ED001A21EE001A81ED001A043049
:1011F000B0F5805FF4D100202060B0BD0000003B5E
:1012000047F61021C1F6FF7108688A68801808BF88
:101210007047B0B54C6840F2D405C2F2000505F144
:1012200002014FF0080202F051FB05F112012046C5
:101230004FF00402BDE8B04002F048BB41F21C018F
:10124000431800F11C01021D08464FF4806105F0AF
:1012500049BD000000F11C0100F1080200F58153B6
:1012600008464FF4806105F0CDBD000090ED010A05
:1012700090ED021A30EE410A80ED030A704700003B
:1012800080B581B00022009290F83C20012A01D163
:10129000022183E0012280F83C200B689AB25200C0
:1012A00012FA83F20A2B12D31E3A072303FA02FC26
:1012B0000368DA6822EA0C02DA608A680B8803EBBA
:1012C00043031E3B02FA03FC03680C330FE00723C1
:1012D00003FA02FC03681A6922EA0C021A618A689E
:1012E0000B8803EB430302FA03FC036810331A680C
:1012F00042EA0C021A604A6842F2043CC4F2010C51
:10130000062A14D802EB8202053A1F2303FA02FED2
:1013100003685A6B22EA0E025A630A884B6803EB91
:101320008303053B02FA03FE026834322AE002EB33
:1013300082030C2A13D8A3F123021F2303FA02FE0F
:1013400003681A6B22EA0E021A630A884B6803EBE1
:101350008303233B02FA03FE0268303212E0A3F15A
:1013600041021F2303FA02FE0368DA6A22EA0E0230
:10137000DA620A884B6803EB8303413B02FA03FEFF
:1013800002682C32136843EA0E0313600368ACF55D
:101390004172934205D0002180F83C10C8B201B0E0
:1013A00080BD0B68122B08D1DCF8003043F48003B9
:1013B000CCF8003003689342EDD10A6822F00102B4
:1013C000102AE8D1DCF8002042F40002CCF800201A
:1013D00009681029DFD140F21C01C2F2000109683E
:1013E0004DF68362C4F21B32A1FB0212910C01EB99
:1013F0008101490002E000BF009901390091009984
:101400000029F9D1C7E70000B0B52DED048B46F2F5
:10141000D801C2F2000188421CBFBDEC048BB0BDF4
:1014200044F6D054C2F200042046FFF7CDFD20461A
:10143000FFF76AFDB0EE408A2046FFF73FFDB0EEB1
:10144000409A18EE100A07F061FA04460D4626A0ED
:1014500022462B46FEF78CFF19EE100A07F056FACB
:10146000024625A00B46FEF783FF9FED190B53ECB8
:10147000102B2046294607F099FA50B99FED160B1C
:1014800053EC102B2046294607F089FA08B92CA006
:1014900016E09FED110B53EC102B2046294607F068
:1014A00085FA08B923A00BE09FED0D0B53EC102B30
:1014B0002046294607F073FA002814BF12A019A08D
:1014C000BDEC048BBDE8B040FFF722B800BF00BF01
:1014D0007B14AE47E17AE43F9A9999999999E93F4B
:1014E000295C8FC2F528E43F524D53203D20252E24
:1014F000326C66200D0A00004B203D20252E326CF8
:1015000066200D0A000000004572726F723A20E6F4
:1015100097A0E6B395E8AF86E588ABEFBC812020C5
:101520000D000000E4B889E8A792E6B3A220200DE0
:1015300000000000E696B9E6B3A22020200D0000CE
:10154000E6ADA3E5BCA6E6B3A22020200D00000076
:101550007047000070470000B0B50446002C02BF81
:1015600001252846B0BD206C30B9204600F020F897
:101570000020606484F83C00206C012510F0100FFE
:1015800010D1206C41F20211884340F00200206427
:101590002046FFF7FBFB00206064206C65F3010030
:1015A00020640025002084F83C002846B0BD0000DF
:1015B00070B586B0044600260596CDE90366CDE9F0
:1015C0000166216842F20000C4F20100814201D0AC
:1015D00006B070BD009643F63001C4F202014A69BC
:1015E00042F480724A614A6902F480720092009A61
:1015F00000960A6842F001020A60096801F00101E0
:1016000000910099202101910321CDE9021600F5F6
:10161000604001A900F094FA46F22015C2F20005DC
:1016200046F21040C4F202004FF480614FF40062B1
:101630004FF40053C5E90006C5E9026605F1100044
:101640004EC04FF44030C5E90806284600F0B8F90E
:10165000002818BFFFF78EFDA563AC6306B070BD10
:1016600070B582B013460A4604460020019094F8F3
:101670003C00012801D10220BAE0012084F83C009E
:101680002068816811F0010F18D1816841F00101D3
:10169000816040F21C00C2F2000000684DF68361D8
:1016A000C4F21B31A0FB0101880C00EB400001E0FB
:1016B00001980138019001980028F9D120688168CB
:1016C00011F4807F1EBF816821F4807181602068E1
:1016D0008168206C11F0010F08D140F010002064E7
:1016E000606C40F001006064002081E040F2017114
:1016F000884340F4807020642068406810F4806F54
:101700001FBF206C012161F30D302064216C4FF06C
:10171000000042F20436C4F2010611F4805F4FF07B
:1017200000011CBF616C21F00601616484F83C007B
:10173000A06B40F60551C0F6000140F68555C0F695
:101740000005C0E90F1540F67151C0F60001C164F3
:1017500020686FF0220101602068416841F08061DB
:1017600041602068816841F4807181602168A06BCC
:1017700001F14C0100F096F93268A6F5417120683C
:1017800012F01F0F03D0884212D0002030E08842B0
:1017900020D0A6F50171884204D1306810F01F0FE7
:1017A00018D02068A6F5827188420ED000201FE074
:1017B000806810F0405F01D0002019E02068816847
:1017C00041F080418160002012E0306800F010009C
:1017D0000F280CD82068816811F0405F01D00020EC
:1017E00006E0816841F080418160002000E0002037
:1017F000C0B202B070BD0000F0B581B00446002058
:10180000009040F21C00C2F200000068D4E91661AA
:101810003768082202FA01F148F2B512C1F64E32D9
:10182000A0FB0205394211D02068016811F0040FB5
:101830000CD0016821F004010160E06D082101FA7B
:1018400000F0B060606D40F001006065E06D012166
:1018500001FA00F0384209D02168496911F0800F7F
:101860001FBFB060606D40F002006065E06D042154
:1018700001FA00F0384209D02168096811F0020F1E
:101880001FBFB060606D40F004006065E06D102126
:1018900001FA00F038421CD02168096811F0080FE5
:1018A00017D0B06020680168006811F4802F07D15C
:1018B000C0055FBF2068016821F00801016001E0F8
:1018C000000301D4216C00E0A16C00291CBF20465C
:1018D0008847E06D202101FA00F0384249D02168A4
:1018E000096811F0100F44D0B06094F835202168D9
:1018F0000868052A22D120F0160008602068416996
:1019000021F080014161206C08B9A06C20B12068F1
:10191000016821F008010160E06D3F2101FA00F04B
:10192000B060012084F83500002084F83400216D77
:10193000002942D02046884701B0F0BD21680968DF
:1019400040030DD4C8050FD42068016821F01001B0
:101950000160012084F83500002084F8340003E0A1
:10196000080301D4616C00E0E16B00291CBF204634
:101970008847606D08B3606D10F0010F18D0A80A99
:10198000052184F8351021680A6822F001020A60F6
:10199000009901310091814204D82168096811F051
:1019A000010FF5D1012084F83500002084F83400BF
:1019B000E16C00291CBF2046884701B0F0BD000043
:1019C0002DE9F041044600F099F90546002C02BFCC
:1019D0000122D0B2BDE8F0814FF0020084F835005A
:1019E0004FF0000084F834002068016821F0010104
:1019F000016000BF2068016811F0010F08D000F0FD
:101A00007DF9401B0528F5D903202021032243E05E
:101A1000016848F23F02CFF2100201EA020C251DD4
:101A20002CCDD4E9041E04F1180898E8C00142EA5C
:101A30000C021A432A43114341EA0E013143394350
:101A400041EA0801626A042A02BFD4E90B23114368
:101A50001943016020684069616A20F0070040EA8C
:101A6000010504290BD1D4E90A01054339B1204607
:101A7000FFF70CFB18B10120402101220CE0206887
:101A800045612046FFF7E2FAE16D3F2202FA01F1DB
:101A90008160002101200022616584F83500D0B208
:101AA000BDE8F081B0B5044694F8340001282DD08B
:101AB000A56D012084F8340094F83500012822D166
:101AC000022084F83500002060652046FFF708FBFF
:101AD000E06D3F2101FA00F0A8602068016841F044
:101AE00016010160206C00281FBF2068016841F0CA
:101AF000080101602068016841F0010101604FF0B8
:101B00000000C0B2B0BD002084F834000220C0B292
:101B1000B0BD000070B505466E1C00F0EFF804463D
:101B200036B140F2EE00C2F200000078054401E058
:101B30004FF0FF3500F0E2F8001BA842FAD370BD69
:101B40002DE9F04F82B041F60042C4F202020827AC
:101B5000904208BF072700F13E4202F1FF724FEAB0
:101B6000B223072B38BF4FEAB22700974FF0010A84
:101B70004FF0030B43F6004EC4F2010E0025002483
:101B80004FF000080AE000BF0435023408F10108F4
:101B9000B8F1100F04BF02B0BDE8F08F0AFA08F9DF
:101BA0000E6816EA090CEFD04E6806F00306013EF7
:101BB000012E15D80BFA04F6D0F808B02BEA060669
:101BC0004FF0030BCA68A24032438260426822EAA7
:101BD00009024E68C6F3001606FA08F63243426060
:101BE0004A6802F00302032A08D00BFA04F2C6681E
:101BF00026EA02028E68A6403243C2604A6802F0BA
:101C00000302022A13D105F01C020F2303FA02F685
:101C10004FF6FC73C7F6FF7303EA580303441F6AC9
:101C200027EA06060F6907FA02F232431A620BFA34
:101C300004F2036823EA02024B6803F00303A340A3
:101C40001A4302608A7992079ED00022019243F6DD
:101C50004402C4F2020213461A6842F480421A6037
:101C60001A6802F48042019228F003027244019B38
:101C70004FF60843CFF6FF73994652F8093005F046
:101C80000C060F27B740BB43009F07FA06F6334305
:101C900042F80930DEF8082022EA0C024B6813F4FF
:101CA000801F18BF42EA0C02CEF8082043F60C420F
:101CB000C4F201021646326822EA0C024B6813F4A1
:101CC000001F18BF42EA0C023260DEF8042022EA4C
:101CD0000C024B6813F4003F18BF42EA0C02CEF826
:101CE0000420DEF8002022EA0C024B6813F4803F47
:101CF00018BF42EA0C02CEF8002045E746F2A87071
:101D0000C2F200000068704740F2EE00C2F200002C
:101D1000007846F2A871C2F200010A681044086017
:101D20007047000080B543F60040C4F2020001682D
:101D300041F400710160016841F480610160016853
:101D400041F480710160032000F090F80F2000F052
:101D500005F800F05DF8002080BD000070B586B089
:101D600004460025019543F64000C4F202000168D4
:101D700041F010010160006800F01000019001982E
:101D800001A8694600F0DEFE049E00F001FF46F265
:101D90001C71C2F2000141F20002C4F2000240F2E2
:101DA000E733002E18BF0126B0404DF68366C4F21B
:101DB0001B36A0FB06064FF0FF3000EB9640C1E952
:101DC0000020C1E902530D618D61084601F07CF9E4
:101DD0000546CDB946F21C70C2F2000001F024FAAB
:101DE00005468DB9362000F02FF80F2C0BD80025B2
:101DF00036202146002200F029F840F2F000C2F21D
:101E00000000046000E00125284606B070BD000017
:101E100082B00020019043F64001C4F202014A68FA
:101E200042F480424A604A6802F480420192019A78
:101E30000090086840F080500860086800F080500A
:101E40000090009802B0704704F06AB970B514466B
:101E50000D46064604F076F92946224601F0DAFEE0
:101E600001463046BDE8704004F074B904F084B90E
:101E7000704700000068416200207047D0F800C041
:101E8000DCF82400F1B180B5DCF8283000EB134316
:101E9000B1F1010E0CD00020002100BF0CEB80003E
:101EA000D0F8040103EB10430131C8B28645F5D8E0
:101EB0000CEB8E0043EA0241C0F80411BDE88040FB
:101EC0000020704740EA0240CCF82800002070470C
:101ED000D0F8080502F0D6BF01EBC10200EB820288
:101EE000D26CD0F8080502F02BBF000001EBC10254
:101EF00000EB8202D2F88C22D0F8080502F07CBFF9
:101F0000D0F8080502F0C0BF01F00F0202EBC202D8
:101F100000EB820303F13C0211F0800F08BF03F5D0
:101F20001F720068114603F0EFBE000010B50A46AC
:101F3000044602F00F0000EBC00104EB810303F143
:101F40003C0112F0800F08BF03F51F71C2F3C012ED
:101F50004A70087094F8BC04012802BF0220C0B285
:101F600010BD4FF0010084F8BC04206803F0DCFBD6
:101F70004FF0000084F8BC04C0B210BDB0B50A46F2
:101F8000044602F00F006168884282BF0125E8B272
:101F9000B0BD00EBC00104EB810303F13C0112F082
:101FA000800F08BF03F51F71C2F3C0124A700025ED
:101FB0008D70087094F8BC04012802BF0225E8B2B5
:101FC000B0BD4FF0010084F8BC04206803F07EFD32
:101FD00084F8BC54E8B2B0BD01F00F0101EBC101BF
:101FE00000EB8100D0F89C027047000070B50C46F1
:101FF000064604F00F0000EBC00106EB810505F179
:102000003C0114F0800F08BF05F51F71C4F3C01523
:102010004D700870CA600B71487800281CBF0878A2
:102020000881022B04BF0020487196F8BC040128E7
:1020300002BF0220C0B270BD4FF0010086F8BC04A0
:10204000306803F0B1FA4FF0000086F8BC04C0B26B
:1020500070BD000080B501F00F0C0CEBCC0100EB63
:10206000810ECEF88C22CEF894320021CEF89C124C
:102070008EF87D128EF87CC20EF51F710369012B5C
:1020800008BFCEF890220068DAB2BCF1000F03D08E
:1020900003F068FD002080BD03F06CFC002080BDD3
:1020A000B0B5044601F00F056268012095422BD8B7
:1020B00001EBC10204EB820305EBC50204EB8202D3
:1020C0003C3211F0800F08BF03F51F72C1F3C0113D
:1020D00051709070157094F8BC04012802BF022062
:1020E000C0B2B0BD4FF0010084F8BC0420681146B6
:1020F00003F014FD2DB9217C206804F2C44203F0E2
:10210000B7FC002084F8BC04C0B2B0BD80B501F0BB
:102110000F0C0CEBCC0100EB810ECEF84C20CEF86E
:1021200054300021CEF85C1001218EF83D1071462C
:1021300001F83CCF0369012B08BFCEF8502000689E
:10214000DAB2BCF1000F03D003F00CFD002080BD1B
:1021500003F010FC002080BD2DE9F04F83B08346D2
:10216000DBF80060304603F085FE10B103B0BDE837
:10217000F08FDBF8000003F0ABFE0028F6D0D6F8B5
:102180000808C0F30D20CBF8FC04DBF8000003F0D6
:102190009FFE10F0020F1FBFDBF80000416901F045
:1021A0000201416106F50067DBF8000003F090FED4
:1021B00010F0100F41D0DBF80000816921F0100110
:1021C0008161346AC4F3434004F00F0506281DD032
:1021D00002282CD147F6F070044028D005EBC5004A
:1021E0000BEB8005D5F88C12C4F30F12304603F0C8
:1021F00073FED5F88C0200EB1410C5F88C02D5F8EC
:102200009C0200EB1410C5F89C0210E00BF2C441D4
:102210003046082203F060FE05EBC5000BEB8000A2
:10222000D0F89C12C4F30A121144C0F89C12DBF8D7
:102230000000816941F010018161CDE90176DBF890
:10224000000003F045FE10F4002F57D0DBF800002B
:1022500003F01CFE002851D0029901F530674FF0C1
:10226000000940F27F24002682465FEACA703DD012
:10227000DBF800005FFA86F8414603F021FE0546D0
:1022800015F0010F05D00120B8605846314601F025
:102290000FFD280705D50820B8605846314601F0E3
:1022A000DBFCE80644BF1020B860A80715D50298EB
:1022B000406910F0800F1FBF0199486840F48060AA
:1022C00048601BF80400012805D10BF8049058461B
:1022D000414600F01FFA0220B860A80644BF202043
:1022E000B860A80444BF4FF40050B86024342037CD
:1022F0004FEA5A000136B9EB5A0FB5D1DBF80000AE
:1023000003F0E6FD10F4802F6FD0DBF8000003F03F
:10231000B5FD002869D00BF2C4410091029901F586
:1023200010654FF000084FF0000A002781465FEA71
:10233000C97051D0DBF80000FCB2214603F0AEFDBD
:10234000064616F0010F21D007F00F00012303FA13
:1023500000F0019A516B21EA00005063AB60DBF89A
:10236000100001280ED10BEB0A00D0E91212114423
:10237000C1643FB9406D28B9DBF800000121009A23
:1023800003F076FB58462146FFF7A6FD300744BF11
:102390000820A860F00644BF1020A860700644BF63
:1023A0004020A860B00711D50298394603F026FDF9
:1023B0000BEB0A0090F83F10012905D180F83F800F
:1023C0005846214600F0A2F90220A860300603D545
:1023D0005846394601F0DCFC0AF1240A20354FEA60
:1023E00059000137B8EB590FA0D1DBF8000003F01A
:1023F0006FFDB0F1FF3FDDF804901ADCD9F804005E
:1024000020F00100C9F804009BF8F404012807D16A
:1024100000208BF8F40458460021FFF729FD02E064
:10242000584600F073FADBF80000416901F0004102
:102430004161DBF8000003F04BFD10F4006F0DD09C
:10244000D9F8080010F0010F1CBF584600F0AAFA96
:10245000DBF80000416901F400614161DBF8000034
:1024600003F036FD10F4805FDDF808805ED0D9F807
:10247000040020F00100C9F80400DBF8000010217E
:1024800003F0BCFCDBF80400E8B108F510600021A3
:102490004FF67F328260036823F400130360C0F8B4
:1024A0000822D0F8003223F40013C0F80032D0F82C
:1024B000003243F00063C0F8003220300131DBF815
:1024C00004309942E6D3D9F81C0040F00110C9F855
:1024D0001C00DBF8300040B1D9F8840040F00B005C
:1024E000C9F8840009F1440008E0D9F8140042F268
:1024F0002B010843C9F8140009F11000016841F0EC
:102500000B010160D9F8000020F4FE60C9F800005A
:102510009BF81010DBF800000BF2C44203F0A8FA9D
:10252000DBF80000416901F480514161DBF80000F3
:1025300003F0CEFC10F4005F1CD0DBF8000003F0C9
:102540007DF8DBF8000003F083FCCBF80C00DBF82F
:10255000005000F017FB01469BF80C20284603F0C2
:1025600039FD584600F0BAF9DBF80000416901F482
:1025700000514161DBF8000003F0AAFC10F0080FE5
:1025800008D0584600F0C6F9DBF80000416901F0B8
:1025900008014161DBF8000003F09AFC10F0800FA5
:1025A0001AD0D8F8180020F08000C8F81800DBF81E
:1025B0000400022810D3012440F2A3251BF80500D3
:1025C000012803D1E1B25846FFF79EFC24350134BF
:1025D000DBF804008442F1D3DBF8000003F078FC60
:1025E00010F4801F26D0DBF8040002281CD30BF166
:1025F000640408F512650126012700BF2868B0F1C0
:10260000FF3F0ADC2078012807D104F8016C47F06D
:102610008000C1B25846FFF777FC243420350137DB
:10262000DBF804008742E9D3DBF80000416901F4DC
:1026300080114161DBF8000003F04AFC10F4001F38
:102640003AD0DBF80400022830D30BF5297008F5E6
:1026500032610122012300BF0F68B7F1FF3F17DC91
:102660000678012E14D107F48037DBF8FC6406F0FD
:102670000106B7420CD100F8012CD8F8187047F0C9
:102680008007C8F81870D8F8147017F0800F07D0BA
:10269000243020310133DBF80470BB42DCD305E089
:1026A000D9F8040040F40070C9F80400DBF8000019
:1026B000416901F400114161DBF8000003F008FCFE
:1026C00010F0804F08D05846FFF702FCDBF80000FE
:1026D000416901F080414161DBF8000003F0F8FB43
:1026E00010F0040F3FF442ADDBF80000446814F032
:1026F000040F1CBF5846FFF703FCDBF800004168DD
:1027000041EA0401416003B0BDE8F08FD0F808054C
:1027100002F022BCD0F8080502F03CBC2DE9F04FD5
:102720008BB004468CB3256894F8BD0428B900200A
:1027300084F8BC04204600F08DF8032084F8BD0422
:10274000E86B10F4807F04BF00202061206803F054
:102750000BF920680A9004F1040E9EE80E5804F16B
:102760001C0A9AE8C007D4E90C50CDE908508DE85E
:10277000005803A880E8C0070A9802F06FFF30B144
:10278000022084F8BD04012560E001255EE0206898
:102790000025002103F0CEFB606868B3606801216A
:1027A0000023002203EBC30304EB830383F83D10F3
:1027B00083F83C20D7B2A3F8447083F84050C3E9B3
:1027C00012555D650132D3B29842EBD8A0B1002119
:1027D0000023002203EBC30304EB830383F87D1281
:1027E00083F87C2283F88012C3E9A211C3F8941203
:1027F0000132D3B29842EDD820680A90271D8ECFBF
:1028000004F1140E9EE8405804F1240A9AE80007E7
:10281000D4E90C50CDE90850CDE9007602A880E853
:10282000005805A880E800070A9802F0EBFF20B1E5
:10283000022084F8BD04012508E0002584F8385002
:10284000012084F8BD04206802F0CEFF28460BB0BA
:10285000BDE8F08FB0B586B000240594CDE90344FF
:10286000CDE901440068B0F1A04F01D006B0B0BD81
:10287000009443F63005C4F20205286840F00100D8
:102880002860286800F00100009000984FF4C050C4
:1028900001900220CDE90204032004900A20059053
:1028A0000020C4F2020001A9FFF74AF9686840F06D
:1028B000800068600094686940F4804068616869DD
:1028C00000F4804000900098432000210022FFF790
:1028D000BDFA4320FFF7B8FA06B0B0BD10B5044604
:1028E000E06818B1022803D1012104E0002102E0D0
:1028F000FEF740FC0121D4F8080502F0CFFBD4F824
:102900000805BDE8104002F079BB0000D0F80805CA
:1029100002F0A6BBD0F8080502F0AEBB10B5044625
:1029200094F8BC04012802BF0220C0B210BD4FF0D1
:10293000010084F8BC0484F83810206803F030FBF0
:102940004FF0000084F8BC04C0B210BDD0F80825D8
:1029500000F2C441104602F0AFBB000010B50446BF
:1029600094F8BC04012802BF0220C0B210BD206848
:102970004FF0010184F8BC14A16A012906D1A169B4
:1029800001291EBF816B41F480318163206803F00F
:1029900007FA206802F01AFF002084F8BC04C0B2D5
:1029A00010BD000010B50446D4F8080502F0C8FBBD
:1029B0002068D0F8001E41F00101C0F8001E206A16
:1029C00000281FBF4EF61050CEF20000016841F003
:1029D000060118BF016010BD2DE9F0410D46044607
:1029E000002C00F0AB8043F60808C4F20208D8F8C7
:1029F000F80300F00700A84208D288F8F853D8F886
:102A0000F80300F00700A84240F09880206810F01A
:102A1000020F19D0400742BFD8F8000040F4E05040
:102A2000C8F800002078000742BFD8F8000040F442
:102A30006040C8F80000D8F80000A16820F0F0005D
:102A400040EA0100C8F800002078C00735D060686F
:102A5000811E022905D258F8080C10F0007F6DD0B5
:102A60000CE0012805D158F8080C10F4003F65D09F
:102A700004E058F8080C10F0020F5FD0D8F80000FE
:102A8000616820F003000843C8F80000FFF736F93A
:102A9000064641F2883700BFD8F80000616800F0B0
:102AA0000C00B0EB810F08D0FFF728F9801BB8426B
:102AB000F2D90320C0B2BDE8F081D8F8F80300F0E5
:102AC0000700A84207D988F8F853D8F8F80300F0AF
:102AD0000700A84232D12078400707D5D8F8000077
:102AE000E16820F4E0500843C8F8000020780007AF
:102AF00008D5D8F80000216920F4604040EAC10000
:102B0000C8F8000000F068F8D8F80010C1F303110D
:102B100048F68042C0F60002515CC84040F21C01F9
:102B2000C2F20001086040F2F000C2F2000000684A
:102B3000FFF714F90020C0B2BDE8F0810120C0B257
:102B4000BDE8F0810F22026043F60802C4F20202DF
:102B5000136803F003034360136803F0F00383601A
:102B6000136803F4E053C360D2F800C04FF4E0539D
:102B700003EADC030361D2F8F80300F00700086001
:102B80007047000040F21C00C2F20000006870476D
:102B900080B5FFF7F7FF43F60801C4F202010968A8
:102BA000C1F3822148F69042C0F60002515CC84051
:102BB00080BD000080B5FFF7E5FF43F60801C4F2D1
:102BC00002010968C1F3423148F69042C0F60002A2
:102BD000515CC84080BD000010B543F60404C4F247
:102BE0000204606800F00C0242F20040C0F2F400FF
:102BF00041F2002CC0F27A0C082A04D0042A04BF47
:102C0000604610BD10BD2268216802F03F022368B3
:102C1000C3F3881311F4800F05D1A3FB0001002337
:102C2000FDF72FFB03E003FB0CF0B0FBF2F0216893
:102C3000C1F30141022202EB4101B0FBF1F010BDF2
:102C40002DE9F04782B004466CB32078C00743F604
:102C5000000AC4F2020A43F67007C4F2020755D014
:102C600057F8680C00F00C0004281ED057F8680CC8
:102C700000F00C00082804D157F86C0C10F4800FF9
:102C800013D16168B1F5803F08D0DAF80000B1F5E2
:102C9000A02F13D140F48020CAF80000DAF8000019
:102CA00040F4803012E001209DE1DAF8000010F4D9
:102CB000003F2BD0606848BB012094E120F48030B5
:102CC000CAF80000DAF8000020F48020CAF80000FA
:102CD0006668FFF713F8054666B100BFDAF8000032
:102CE00010F4003F12D1FFF709F8401B6428F5D912
:102CF000032078E1DAF8000010F4003F06D0FEF778
:102D0000FDFF411B03206429F4D96CE12078800782
:102D100040F20008C4F2472837D557F8680C10F085
:102D20000C0F21D057F8680C00F00C00082804BFE5
:102D300057F86C0C10F4800F16D0E068002800F0F3
:102D400094800120C8F80000FEF7D8FF054600BFB8
:102D5000DAF8000010F0020F0ED1FEF7CFFF401B93
:102D60000228F5D903203EE1DAF8000010F0020F46
:102D70001CBFE068012876D1DAF80000216920F054
:102D8000F80040EAC100CAF800002078000724D506
:102D9000606980B10120C8F8800EFEF7AFFF0546DC
:102DA000786810F0020F18D1FEF7A8FF401B022828
:102DB000F6D9032017E10020C8F8800EFEF79EFF29
:102DC000054600BF786810F0020F06D0FEF796FFA8
:102DD000401B0228F6D9032005E12078400740F186
:102DE000898057F8300C4FF0000910F0805F0FD148
:102DF000CDF8049057F8300C40F0805047F8300C74
:102E000057F8300C00F08050019001984FF0010904
:102E100043F60006CFF6FE765AF8060010F4807FDF
:102E200014D15AF8060040F480704AF80600FEF704
:102E300065FF05465AF8060010F4807F06D1FEF7BC
:102E40005DFF401B0228F5D90320CCE0A1680129D1
:102E500005D0386805291CD140F004003860386876
:102E600040F001001BE00120BDE00020C8F8000098
:102E7000FEF744FF054600BFDAF8000010F0020F2D
:102E80003FF483AFFEF73AFF411B03200229F3D939
:102E9000A9E020F001003860386820F004003860B4
:102EA000A668FEF72BFF05466EB141F2883600BFDB
:102EB000386810F0020F14D1FEF720FF401BB0421B
:102EC000F6D903208FE041F2883600BF386810F051
:102ED000020F06D0FEF712FF411B0320B142F5D9C5
:102EE00081E0B9F1010F02BF57F8300C20F080509B
:102EF00047F8300CA669002E74D057F8680C00F023
:102F00000C00082803D1012E22D101206BE0002003
:102F1000C8F86000FEF7F2FE0546022E0CD100BF95
:102F2000DAF8000010F0007F38D0FEF7E7FE411B12
:102F300003200229F4D956E0DAF8000010F0007FEF
:102F400050D0FEF7DBFE411B03200229F4D94AE0F2
:102F500057F86C0CE16900F480028A4247D1216A7B
:102F600000F03F028A4244D147F6C0710140626AD4
:102F7000B1EB821F3FD1A16AC9034FF6FF729143A3
:102F8000A1F5803100F440328A4236D1E16A00F086
:102F90007060B0EB016F25D0012024E004F11C0625
:102FA0004FCE084340EA821040EA0660D9034FF64C
:102FB000FF729143A1F58031084347F86C0C012062
:102FC000C8F86000FEF79AFE044600BFDAF8000079
:102FD00010F0007F06D1FEF791FE011B03200229AD
:102FE000F4D900E00020C0B202B0BDE8F0870120B3
:102FF000F9E70120F7E70120F5E70120F3E70000FA
:10300000704700007047000090F83C300222012B0E
:1030100057D010B5012380F83C3080F83D2003687C
:10302000D3F804E0D3F808C00C682EF070022243F5
:103030005A60036841F2FF72C4F200029342BDE895
:1030400010400BDC40F2FF72C4F20002934213DC2A
:10305000B3F1804F29D040F2004215E040F2FF3238
:10306000C4F20102934214DC41F60002C4F20002F1
:1030700093421AD0002214E040F60002C4F200028B
:10308000934212D040F60042C4F2000293420CD0A8
:1030900011E044F20002C4F20102934205D040F272
:1030A0000042C4F20102934205D149682CF080022B
:1030B000114302689160012180F83D10002280F8E0
:1030C0003C20D0B27047000010B50446002C04BF6D
:1030D000012010BD94F83D0028B9002084F83C0080
:1030E000204600F01FF8022084F83D002068211DD2
:1030F00000F060FF012084F8460084F83E0084F868
:103100003F0084F8400084F8410084F8420084F8CD
:10311000430084F8440084F8450084F83D00002012
:1031200010BD000082B0016843F64000C4F2020006
:1031300040F20042C4F2000291420FD0B1F1804F40
:1031400017D100210191016841F00101016000687F
:1031500000F001000190019802B070470021009139
:10316000016841F002010160006800F00200009077
:10317000009802B07047000090F83D1001291CBF74
:10318000012070474FF0020180F83D10016841F2C4
:10319000FF72C4F2000291420FDC40F2FF72C4F2EF
:1031A0000002914217DCB1F1804F2DD040F2004275
:1031B000C4F20002914227D02EE040F2FF32C4F266
:1031C0000102914214DC41F60002C4F20002914275
:1031D0001AD0002214E040F60002C4F2000291422C
:1031E00012D040F60042C4F2000291420CD013E02B
:1031F00044F20002C4F20102914205D040F20042C2
:10320000C4F20102914207D10168896801F0070107
:10321000062904BF002070470068016841F00101E1
:10322000016000207047000090F83D1001291CBF8C
:10323000012070474FF0020180F83D100168CA6814
:1032400042F00102CA60016841F2FF72C4F200025A
:1032500091420FDC40F2FF72C4F20002914217DC8F
:10326000B1F1804F2DD040F20042C4F200029142F1
:1032700027D02EE040F2FF32C4F20102914214DC6A
:1032800041F60002C4F2000291421AD0002214E07A
:1032900040F60002C4F20002914212D040F6004211
:1032A000C4F2000291420CD013E044F20002C4F2D6
:1032B0000102914205D040F20042C4F20102914263
:1032C00007D10168896801F00701062904BF0020C1
:1032D00070470068016841F00101016000207047FB
:1032E00010B5044694F83C200220012A68D001223F
:1032F00084F83C2084F83D00206882684FF677739C
:103300009A4382600A684F2A10DC1F2A26DD202A91
:1033100018BF302A26D0402A54D14B68CA6820688A
:10332000194600F0C3FF2068402140E06F2A1CDDF1
:10333000B2F5005F26D0B2F5805F3AD0702A41D155
:10334000D1E9012CCB682068614600F0D7FE2068E7
:103350008068216840F0770088602AE0002A18BF62
:10336000102A2FD12068114621E0502A17D0602A58
:1033700028D14B68CA682068194600F0A9FF206868
:10338000602114E0D1E9012CCB682068614600F08F
:10339000B5FE2068816841F48041816009E04B6896
:1033A000CA682068194600F081FF2068502100F0AB
:1033B000AFFE0020012184F83D10002184F83C106C
:1033C000C0B210BD0120F5E77047000010B50446FB
:1033D0002068016911F0020F1CBFC16811F0020FD3
:1033E00015D06FF00201016101202077206880690B
:1033F00010F0030F03D02046FFF7E6FF05E020465C
:1034000000F0CEF8204600F063F900202077206815
:10341000016911F0040F1CBFC16811F0040F15D031
:103420006FF004010161022020772068806910F4A8
:10343000407F03D02046FFF7C7FF05E0204600F09D
:10344000AFF8204600F044F9002020772068016999
:1034500011F0080F1CBFC16811F0080F15D06FF0F4
:1034600008010161042020772068C06910F0030F73
:1034700003D02046FFF7A8FF05E0204600F090F8B3
:10348000204600F025F9002020772068016911F01E
:10349000100F1CBFC16811F0100F15D06FF0100194
:1034A0000161082020772068C06910F4407F03D0B4
:1034B0002046FFF789FF05E0204600F071F820461E
:1034C00000F006F9002020772068016911F0010F53
:1034D0001CBFC16811F0010F05D06FF0010101613F
:1034E000204600F079F92068016911F0800F1CBFB7
:1034F000C16811F0800F05D06FF080010161204696
:10350000FFF77EFD2068016911F0400F1CBFC16804
:1035100011F0400F05D06FF040010161204600F02E
:1035200065F92068016911F0200F1CBFC16811F016
:10353000200F00D110BD6FF0200101612046BDE8D1
:103540001040FFF75FBD000080B586B000210591F7
:10355000CDE90311CDE901110068B0F1804F01D030
:1035600006B080BD009143F63000C4F2020002684C
:1035700042F001020260006800F001000090009833
:10358000012001900222CDE90221CDE904100020A2
:10359000C4F2020001A9FEF7D3FA06B080BD000014
:1035A00070470000B0B50D46044694F83C00012871
:1035B00002BF0220C0B2B0BD4FF0010084F83C0051
:1035C0004FEAB20103294ED8DFE801F00214253793
:1035D0002068294600F0A4FD2068816941F00801B7
:1035E00081612068816921F0040181612969206875
:1035F000183034E02068294600F0C4FD2068816955
:1036000041F4006181612068816921F480618161F8
:103610002068183021E02068294600F0E9FD206884
:10362000C16941F00801C1612068C16921F004014C
:10363000C161296920681C3011E02068294600F02A
:103640000DFE2068C16941F40061C1612068C16953
:1036500021F48061C16120681C3029690902026877
:10366000114301600020002184F83C10C0B2B0BDBD
:1036700010B50446002C04BF012010BD94F83D0095
:1036800028B9002084F83C00204600F01FF80220F2
:1036900084F83D002068211D00F08CFC012084F896
:1036A000460084F83E0084F83F0084F8400084F827
:1036B000410084F8420084F8430084F8440084F810
:1036C000450084F83D00002010BD00007047000058
:1036D0007047000010B5044639B10320082908BF1F
:1036E0000220042908BF012000E00020204490F8B7
:1036F0003E0001281CBF012010BD4FF0020041B167
:10370000082909D0042914BF84F8410084F83F0037
:1037100004E084F83E0001E084F8400020680122C3
:1037200000F0DCFC206840F4806240F20041C4F20A
:1037300001018A4202BF426C42F4004242642068A6
:1037400041F2FF72C4F2000290420FDC40F2FF71BE
:10375000C4F2000188421BDCB0F1804F2DD040F252
:103760000041C4F20001884227D02EE040F2FF322F
:10377000C4F20102904218DC41F60001C4F20001DB
:1037800088421AD00021C4F20101884215D01CE001
:1037900040F60001C4F2000188420ED040F600411C
:1037A000C4F20001884208D00FE044F20002C4F2E3
:1037B0000102904201D0884207D12068806800F061
:1037C0000700062804BF002010BD2068016841F0F2
:1037D00001010160002010BD006841F20001C4F247
:1037E0000001884208BFFEF78FBA7047704700009B
:1037F00010B50446002C04BF012010BD94F83D0014
:1038000028B9002084F83C00204600F023F824204A
:1038100084F83D002068C16821F40051C160204651
:1038200000F068FD2068016921F490410161206881
:10383000416921F02A0141612068C16841F40051C9
:10384000C16000202064202184F83D1084F83E10DF
:1038500010BD000080B586B000210591CDE90311AF
:10386000CDE90111026841F20000C4F20100824278
:1038700001D006B080BD009143F63002C4F20202CE
:10388000536943F010035361536903F0100300932D
:10389000009B0091136843F001031360126802F06B
:1038A00001020092009A4FF4C06201920222CDE917
:1038B0000221032104910721059100F5704001A91F
:1038C000FEF73EF906B080BDFEE7000010B5002A05
:1038D00008BF10BD01F101014FF0300C4FF0370E61
:1038E0004FF000030EEB1074B0F1204F38BF4CEADC
:1038F000107401F8014C0B70013A01F102014FEA1A
:103900000010EFD110BD000010B584B00021CDE94A
:103910000211CDE9001146F2D800C2F2000042F2D5
:103920000002C4F20102C0E9002181600161017658
:1039300080F820104FF080524FF00063C0E90A3247
:10394000C1600124C46180F830404461FDF704FE89
:10395000002818BFFDF70EFC4FF00500CDE900046C
:103960004FF00400029046F2D800C2F2000069460F
:10397000FDF786FC002818BFFDF7FCFB04B010BD66
:1039800080B582B00020019043F63000C4F20200FE
:10399000016841F480010160006800F4800001903A
:1039A0000198382000210022FEF750FA382002B09A
:1039B000BDE88040FEF748BA83B00020029043F68D
:1039C0003001C4F202010A6842F004020A600A6887
:1039D00002F004020292029A01900A6842F0800208
:1039E0000A600A6802F080020192019A0090086859
:1039F00040F001000860086800F0010000900098A5
:103A000003B0704710B58EB000210D91CDE90B11B8
:103A1000CDE90911CDE90711CDE90511CDE9031172
:103A2000CDE9011146F28C60C2F200004FF08042F5
:103A3000472340F2E734C0E90023C0E902140161E2
:103A40008161FFF741FB002818BFFDF793FB4FF49E
:103A500080500A9046F28C60C2F200000AA9FFF77B
:103A60003FFC002818BFFDF785FB46F28C60C2F2D0
:103A70000000FFF7FDFD002818BFFDF77BFB4FF0AE
:103A80000004CDE9084446F28C60C2F2000008A9A7
:103A9000FFF7BAFA002818BFFDF76CFB4FF0600083
:103AA00001904FF4FA70CDE90204059446F28C605F
:103AB000C2F2000001A94FF00002FFF773FD0028D9
:103AC00018BFFDF757FB46F28C60C2F20000FFF70B
:103AD0003BFD0EB010BD000080B586B00021CDE9E1
:103AE0000411CDE90211CDE9001146F2D460C2F211
:103AF000000040F20042C4F2000259234FF0010CD2
:103B0000C0E90023C0E9021C01618161FFF7DCFA12
:103B1000002818BFFDF72EFB4FF48050029046F2AC
:103B2000D460C2F2000002A9FFF7DAFB002818BF38
:103B3000FDF720FB4FF0200000904FF000000190B7
:103B400046F2D460C2F200006946FFF75DFA002831
:103B500018BFFDF70FFB06B080BD000080B546F230
:103B60006470C2F2000041F20001C4F201014FF49E
:103B7000E13200234FF00C0C80E80E00C0E9033363
:103B8000C0E905C3C361FFF733FE00281CBFBDE8D1
:103B90008040FDF7EFBA80BD80B545F6FC50C2F21B
:103BA000000040F20001C2F20001002201F09CF886
:103BB000002818BFFDF7DEFA45F6FC50C2F20000FF
:103BC00040F22001C2F2000101F0E2FA002818BF21
:103BD000FDF7D0FA45F6FC50C2F2000040F2BC01FD
:103BE000C2F2000100F0BCFD002818BFFDF7C2FAC8
:103BF00045F6FC50C2F2000001F088FB00281CBF13
:103C0000BDE88040FDF7B6BA80BD0000FEE70000C9
:103C1000FEE7000000F0070000F1040CC31EBCF139
:103C2000070F38BF002380F00700042828BF0420B6
:103C30004FF0010C0CFA00F00138084098400CFAE3
:103C400003F10139114008437047000046F280102B
:103C5000C2F20000FEF780BAB0B50446226802EB5B
:103C60004110156CD0F8081B11F4004F0AD043F234
:103C70000B01C4F654718D4222BF00F530604FF441
:103C8000004181602046FEF761FE43F20B00C4F65E
:103C9000547085420AD32069012818BFB0BD20683E
:103CA00004F2C4424FF0010101F0E2FEB0BD000099
:103CB000B0B50D460446206800EB4513026CD3F8FE
:103CC000081B03F5306C206943F20B03C4F65473F0
:103CD000012827D1080731D4880642BF2020CCF81C
:103CE0000800B0BD11F0280F18BFB0BD9A4202D332
:103CF00011F4004027D105EBC50004EB8001D1F899
:103D00009802DCF810206FF3DF42801AC1F89C02A1
:103D1000C5BBD1F894227AB3D1F88C221044C1F8F3
:103D20008C022FE003F1FF00824211D108041ED45F
:103D3000880644BF2020CCF8080023E09A421AD31A
:103D400011F4004017D04FF40040CCF80800B0BD8B
:103D5000C5B905EBC50004EB8000D0F8940288B922
:103D6000206804F2C442002101F082FE0AE04FF410
:103D70000040CCF80800B0BD206804F2C442012124
:103D800001F076FEE9B22046BDE8B040FEF7AEB8DD
:103D90002DE9F04F85B001EBC10200EB820B5D46CF
:103DA00055F8546F2C4654F8087FBE4261D3026820
:103DB0005B4653F8488FCDE90213049202EB411E93
:103DC000DEF81899D4F800C02A680021624588BF3F
:103DD0000121F61B464588BF4646DAB30336B608CE
:103DE0001FFA89F7B74228BF624533D90EF5106A2A
:103DF0000BF14C080299CFB2D8F80010039B1B6856
:103E00008346067C0096A2EB0C09994588BF99462B
:103E10001FFA89F304983A4602F066F9D8F80000D0
:103E20004844C8F80000206848442060DAF8183098
:103E3000D4F800C02A6862454FF0000188BF012114
:103E400042B109F10306B6089BB2B34202D3624500
:103E50005846D1D8002902980BD100F00F0001215B
:103E600001FA00F0049AD2F8341821EA0000C2F8EE
:103E7000340805B0BDE8F08F7047000070470000BF
:103E80000178407841EA00207047000000000000FF
:103E90002DE9F047804608F11C0500269FED100B28
:103EA0005AEC109B9FED100B54EC107BD8F80000DF
:103EB00030F8160004F0A0FB4A46534604F028FCF4
:103EC0003A46234604F004FA04F0C4F945F8040B1A
:103ED0000136B6F5806FE9D1BDE8F08700BF00BFBD
:103EE0006666666666660A400000000000FEAF4037
:103EF00070470000B0B592B00024CDE90A44CDE986
:103F000008440594CDE90344CDE90144009443F607
:103F10004000C4F20200016841F080510160006875
:103F200000F0805000900098009447F20000C4F226
:103F30000000016841F480410160006800F48040A5
:103F400000900098012006904FF4803007900225E1
:103F50000C954FF480000D9004200E904820CDE980
:103F60000F050320119006A8FEF76AFE78B90F200E
:103F7000CDE9010503944FF48050CDE9040401A874
:103F80000221FEF729FD002804BF12B0B0BDFDF7E5
:103F9000F1F800004EF68850CEF20000016841F4BE
:103FA000700101607047000046F21C70C2F2000010
:103FB000FFF70CBA026840F6FF3CC4F2000C604503
:103FC0000FDCB0F1804F1EBF40F20043C4F200038B
:103FD000984217D040F60003C4F20003984211D073
:103FE00014E040F60043C4F2000398421EBF40F2C2
:103FF0000043C4F20103984204D00023C4F2010339
:10400000984203D14B6822F070021A4341F6FF73C5
:10401000C4F2000398420DDC60451FDCB0F1804F14
:104020001EBF40F20043C4F2000398423BD040F66A
:10403000000321E043F6FF73C4F20103984220DC41
:1040400042F20003C4F2000398421EBF0023C4F2F0
:104050000103984227D040F2004320E040F600439D
:10406000C4F2000398421EBF41F60003C4F20003ED
:10407000984218D041F60043C4F20003984212D08F
:1040800015E044F20003C4F2010398421EBF44F657
:104090000003C4F20103984205D044F20043C4F285
:1040A0000103984203D1CB6822F440721A434B6952
:1040B00022F080021A4302608A68C2620A68826241
:1040C00040F4806240F20043C4F201039A4204BF0C
:1040D000096901634FF001014161704701F01F015F
:1040E000012303FA01FC036A23EA0C03036202FAC8
:1040F00001F1026A1143016270470000114341EA75
:104100000321826822F47F421143816070470000DE
:10411000826822F07702114341F007018160704705
:10412000B0B5026A22F001020262026AD0F804E02D
:1041300084690B688D6822F00202154324F0730233
:1041400042EA030C40F4806240F20044C4F20104ED
:10415000A24201BF25F00C03CD6825F004051D43E4
:10416000A24201BFD1E905232EF44074224342EA62
:10417000030EC0F804E0C0F818C049684163056246
:10418000B0BD000070B5026A22F010020262026A3D
:10419000466884690B688D6822F0200242EA051E99
:1041A00024F4E64242EA032C40F4806240F20044E8
:1041B000C4F20104A24201BFCB686FF04F0505EACB
:1041C00003132EF0C00508BF43EA050EA24201BF4B
:1041D000D1E9052326F4406444EA820242EA8306D8
:1041E0004660C0F818C049688163C0F820E070BD1F
:1041F00070B5026A22F480720262026A4668C4697B
:104200000B688D6822F4007242EA052E24F07302D6
:1042100042EA030C40F4806240F20044C4F201041C
:10422000A24208D1CB681B0240F2FF45AB432EF4FB
:10423000406543EA050EA24201BFD1E9052326F4F9
:10424000405444EA021242EA03164660C0F81CC019
:104250004968C163C0F820E070BD0000B0B5026AD3
:1042600022F480520262D0F820C04368D0F81CE0EB
:104270000D688A682CF4005444EA023C2EF4E642AD
:1042800042EA052240F4806540F20044C4F2010491
:10429000A54202BF4D6923F4804343EA851343607E
:1042A000C26149680164C0F820C0B0BDD0F820C028
:1042B000036A23F001030362836923F0F00343EAF6
:1042C000021282612CF00A02114301627047000061
:1042D000036A23F010030362836923F4704343EA03
:1042E0000232036A826123F0A00242EA01110162F4
:1042F0007047000010B5044620680169E26821F4A7
:104300004051114301612068A168D4E9042311439D
:104310001943E2691143C26849F20C639A4311439D
:10432000C16020684169A26921F440711143416173
:10433000206840F4806041F20041C4F201018842EB
:1043400002D1FEF737FC01E0FEF722FC1921A0FBA9
:1043500001016368E269B2F5004F1CD15A00DB0F1E
:10436000FBF78FFF48F21F51C5F2EB11A0FB0123B1
:104370005A096FF0630302FB0300322303EBC00012
:10438000A0FB01014FF4F87000EA111000EB0210DD
:10439000C1F342111AE09A009B0FFBF772FF48F23B
:1043A0001F51C5F2EB11A0FB01235A096FF0630303
:1043B00002FB0300322303EB0010A0FB0101F020FD
:1043C00000EA511000EB0210C1F3431108432168C9
:1043D000886010BD10B58C46D0F8D41200EB810176
:1043E000D1F8C012002902BF0324E0B210BD0CF0C6
:1043F0000F0202EB820300EB830353F8184F64B102
:10440000D0F8C8E202EBC2020EEB8202D2F848E01A
:10441000B4FBFEF202FB1E429AB10024C1F8144222
:10442000D0F8D42200EB8200D0F8C402036933B183
:10443000D1F8080201F50471624698470024E0B201
:1044400010BD00241C6061460022002300F082FEA3
:10445000E0B210BDB0B50446D4F8D40204EB80003D
:10446000D0F8C052002D02BF0320C0B2B0BD20461C
:1044700000F01CFDC5F80C02D4F8D40204EB800057
:10448000D0F8C402C268D5F8040205F5037190475C
:104490004FF00000C0B2B0BD70B50446812100F0FD
:1044A00045FC002525872046012100F03FFCA4F8AB
:1044B00078512046822100F039FCE564D4F8D4021A
:1044C00004EB8000D0F8C01289B1D0F8C402406873
:1044D0008047D4F8D40204F5307656F8200001F075
:1044E0005BF8D4F8D40246F82050C4F8BC5200203F
:1044F00070BD000010B5D0F8D41200EB8100D0F8E8
:10450000C042002C02BF0320C0B210BDD0F8C412BC
:1045100000291CBF94F80002FF2807D094F801225C
:104520008B6821469847FF2084F800020020C0B223
:1045300010BD00000A21018040F29C00C2F2000080
:1045400070470000F0B581B0044640F25807C2F24F
:1045500000073846822100F03FFB0646384601211D
:1045600000F03AFB05463846812100F035FB002E6D
:104570001CBF1021B171002D1CBF4021A980002853
:104580001CBF402181804FF04300208040F2580042
:10459000C2F2000001B0F0BDF0B581B0044640F2B7
:1045A0005807C2F200073846822100F015FB064684
:1045B0003846012100F010FB05463846812100F005
:1045C0000BFB002E1CBF1021B171002D1CBF4FF43E
:1045D0000071A98000281CBF4FF4007181804FF04A
:1045E0004300208040F25800C2F2000001B0F0BD4C
:1045F000F0B581B0044640F25807C2F200073846D1
:10460000822100F0E9FA06463846012100F0E4FA7A
:1046100005463846812100F0DFFA002E1CBF10212C
:10462000B171002D1CBF4021A98000281CBF402172
:1046300081804FF04300208040F25800C2F2000019
:1046400001B0F0BD70B504464FF4077000F0A6FF4E
:104650000546FDB128464FF40771FBF76FFFD4F80C
:10466000D40204F5307141F82050D4F8D40251F846
:104670002000C4F8BC02207CA0B120468121022287
:10468000402300F0A5FC01202087204601210222C2
:10469000402315E0D4F8D40204EB80000021C0F8D8
:1046A000C0123EE02046812102224FF4007300F048
:1046B0008FFC012020872046012102224FF4007345
:1046C00000F086FC0126A4F878611020A4F84E00C2
:1046D000204682210322082300F07AFCA4F84C60D3
:1046E0000026C5F80462D4F8D40204EB8000D0F8A8
:1046F000C40200688047C5F81462C5F81862D5F88E
:10470000042272B1207C002820464FF001010CBF2A
:104710004FF40073402300F067FC4FF00000C0B27C
:1047200070BD0220C0B270BD80B5D0F8D41200EBCD
:104730008101D1F8C01279B1D1F80422017C00299D
:104740004FF001010CBF4FF40073402300F04CFC0C
:104750004FF00000C0B280BD0320C0B280BD000099
:10476000002902BF0320C0B27047D0F8D42200EB6A
:104770008200C0F8C4124FF00000C0B270470000C1
:10478000D0F8D42200EB8200D0F8C00200280EBF7F
:104790000320C0F804120020C0B27047D0F8D43211
:1047A00000EB8300D0F8C00200280FBF0320C0F840
:1047B0000812C0F810220020C0B2704770B582B055
:1047C0000D460446D4F8D40204EB8001D1F8C0624F
:1047D00000208DF80700ADF80400002E18D02B78CB
:1047E00013F0600016D020282BD16878EA88002AC0
:1047F0002DD01B0633D486F80002402A28BF402261
:1048000086F801222046314600F0A4F800265EE03A
:1048100003265CE068780B2842D80026DFE800F029
:10482000065740404040404040402E3A94F89C0299
:1048300003283BD101A92046022200F0A5F800265A
:1048400045E02046294600F079F803263FE0D1F8FC
:10485000C4128B68002629460022984737E0D1F819
:10486000C4128B6831469847EA88072A28BF072276
:104870002046314600F088F8002628E094F89C0293
:10488000032819D10DF107012046012200F07CF820
:1048900000261CE094F89C02032813D1002616E0A1
:1048A0002046294600F04AF8032610E02046294613
:1048B00000F044F803260AE02046294600F03EF8BE
:1048C000032604E02046294600F038F80326F0B21B
:1048D00002B070BD80B5D0F8B82252689047002869
:1048E00018BF032080BD000090F89C22013A022AE4
:1048F00088BF00F023B84988012918BF704780B5E8
:104900004FF00001C0F8A41200F04CF8BDE8804060
:1049100070470000002070470020704780B51346A4
:104920000A46002100F060FB002080BD80B51346E0
:104930000A46002100F00EFC002080BD10B50446A0
:10494000802100F0E9FB20460021BDE8104000F086
:10495000E3BB000080B513460A460321C0F8941259
:10496000C0E95633002100F03FFB002080BD00006D
:1049700080B50521C0F8941200210022002300F028
:1049800033FB002080BD000080B513460A4602219B
:10499000C0F89412C0E90633002100F0DBFB0020D0
:1049A00080BD000080B50421C0F8941200210022CF
:1049B000002300F0CFFB002080BD000010B50A46A8
:1049C00004A040F25C14C2F20004214600F058F941
:1049D000204610BD43444320436F6E666967000064
:1049E0001220088040F2A800C2F2000070470000C8
:1049F00010B50A4604A040F25C14C2F2000421463D
:104A000000F03EF9204610BD43444320496E7465D2
:104A100072666163650000000420088040F2D000E7
:104A2000C2F200007047000010B50A4604A040F230
:104A30005C14C2F20004214600F022F9204610BDA9
:104A400053544D6963726F656C656374726F6E6900
:104A50006373000010B50A4604A040F25C14C2F271
:104A60000004214600F00CF9204610BD53544D338C
:104A700032205669727475616C20436F6D506F728D
:104A80007400000080B51A200880FCF7B9FB40F2E2
:104A9000D400C2F2000080BD80B5C98801291CBFC6
:104AA000BDE88040FFF74ABF90F89C12A1F10102D7
:104AB000022A04D20022014641F8082F07E0032908
:104AC0001CBFBDE88040FFF739BF00F1040101229F
:104AD000FFF75AFF80BD0000B0B582B00D46044616
:104AE0000020ADF8060068884FF0FF3101EB10217F
:104AF000062900F26780DFE801F0041609656524E5
:104B00002D00207CD4F8B4120A6848E0C0B2052811
:104B100058D8DFE800F0032B30353A3FD4F8B40220
:104B20004268DABB4EE0D4F8B802217C002914BFF9
:104B3000C16A816A0DF10600884701464FF0020004
:104B400012E0207CF0BBD4F8B802416B0DF10600F6
:104B5000884727E0207CA8BBD4F8B802016B0DF190
:104B6000060088470146072048701CE0D4F8B402CC
:104B700082689AB926E0D4F8B402C26872B921E01A
:104B8000D4F8B40202694AB91CE0D4F8B40242690C
:104B900022B917E0D4F8B40282699AB1207C0DF1F1
:104BA000060190470146EA888AB1BDF8060048B17F
:104BB000904238BF0246ADF806202046FFF7E4FEDB
:104BC00002B0B0BD2046FFF7B9FE02B0B0BD20462E
:104BD000FFF7E8FE02B0B0BD70B582B00C460546E6
:104BE00028786988814215D9ADF806006988814224
:104BF00010D90DF106062846314600F023F8417819
:104C0000052904BF8178A14207D06988BDF8062034
:104C10008A42F1D3002002B070BD02B070BD000026
:104C20000178002902BF0020C0B2704700F10101E5
:104C30004FF00000013011F8012B002AFAD1C0B268
:104C40007047000002780B8813440B8010447047B3
:104C500090F89C22013A022A88BFFFF76FBEC988EC
:104C600002290BD1D0F8A4120322002908BF012287
:104C7000C26000F10C010222FFF786BEFFF75EBEA4
:104C800070B516460C460546FDB12846FFF7C8FF2D
:104C9000022101EB400030803078207003206070EA
:104CA0002978002908BF70BD05F101004FF002020C
:104CB0004FF00003D6B2A15542F00101C9B26354CE
:104CC000023210F8011B0029F4D170BD032884BF03
:104CD000032070474FEAC00040F20031C0F20131BA
:104CE00021FA00F0C0B27047002804BF03207047CB
:104CF0004FF00003C0F8B832C0F8C432C0F8D03268
:104D0000002918BFC0F8B4124FF0010180F89C12BE
:104D1000027000F0CFB8000080B5D0F8C802FDF7EF
:104D20002DF9BDE88040FFF7D1BF000080B5D0F875
:104D3000C802FDF7FBF8BDE88040FFF7C7BF0000E1
:104D4000B0B50446A1B194F89C02032852D1D4F81E
:104D5000B802406900284DD00020C4F8D402D4F82D
:104D6000B802426920469047002808BF0020B0BD25
:104D7000D4F89402022836D1D4E9071081420DD923
:104D80000B1AE361204611461A46FFF7CFFD204675
:104D900000210022002300F027F924E00FD1A169AF
:104DA00081420CD3D4F89802814208D200252046D3
:104DB00000210022FFF7BAFDC4F89852E7E794F803
:104DC0009C02032808D1D4F8B802C16821B10020A0
:104DD000C4F8D402204688472046802100F09CF980
:104DE0002046FFF7C5FD94F8A00200281CBF002054
:104DF00084F8A0020020B0BD10B5044699B194F823
:104E00009C02032826D1D4F8B802806910B3002090
:104E1000C4F8D402D4F8B80282692046904700282A
:104E200008BF002010BDD4F89402032812D1D4E9A1
:104E30005710814210D904F5B073091AC4F85C11F7
:104E4000814238BF04F5AE731B68204611461A46EE
:104E5000FFF764FD002010BD94F89C0203280BD1DD
:104E6000D4F8B802006938B10020C4F8D402D4F8EC
:104E7000B8020169204688472046FFF793FD0020CD
:104E800010BD000000207047012180F89C12D0F86E
:104E9000B822002A04BF0020704780B5017952680B
:104EA0009047002818BF032080BD0000D0F8C8023A
:104EB000FDF792B8017809B10020704710B546F2AD
:104EC0008011C2F20001C1F80805C0F8C8124FF005
:104ED000A0400422C1E9000202200022C1E903022D
:104EE000C1E90602C1E90822C1E90B220846FDF723
:104EF00015FC002818BFFCF73DF946F28014C2F2F9
:104F0000000420464FF08001FCF7B4FF20464FF02C
:104F100000014FF04002FCF7B1FF20464FF00101C5
:104F20004FF08002FCF7AAFFBDE810404FF00000F0
:104F300070470000D0F8C80201F07F0202EBC20205
:104F400000EB820000F13E0211F0800F08BF00F27A
:104F50007E22107870470000D0F8D42200EB820245
:104F6000D2F8B832002B02BF0320C0B2704790F8CD
:104F70009C32032B0BD102F52E721268126A32B1E9
:104F800080B590470020BDE88040C0B27047002047
:104F9000C0B27047D0F8D42200EB8202D2F8B83207
:104FA000002B02BF0320C0B2704790F89C32032B45
:104FB0000BD102F52E721268526A32B180B5904759
:104FC0000020BDE88040C0B270470020C0B27047EA
:104FD00080B59446D0F8C8021A466346FDF706F835
:104FE000BDE88040FFF772BE80B5D0F8C802FDF77B
:104FF00031F8BDE88040FFF769BE0000F0B581B030
:105000000446012684F89C620025C4F89452656029
:10501000C4F8A45284F8A052D4F8B80250B142683F
:105020003AB12179204690470546002D18BF032547
:1050300000E0002540272046002100224023FFF702
:10504000C7FFA4F86461C4F8607120468021002283
:105050004023FFF7BDFFA6842762284601B0F0BDBC
:1050600090F89C12042904BF90F89D1280F89C12BD
:105070004FF000007047000090F89C1203290AD1FD
:10508000D0F8B81200291CBFC969002903D080B527
:105090008847BDE880400020704700000174002070
:1050A0007047000080B5D0F8C802FDF737FCBDE8B6
:1050B0008040FFF70BBE0000B0B5044604F2AA25FD
:1050C000284600F051F80120C4F89402B4F8B00268
:1050D000C4F8980294F8AA0200F01F01022908D02F
:1050E00001290CD089B920462946BDE8B04000F01E
:1050F0000FB920462946BDE8B04000F047B9204628
:105100002946BDE8B04000F007BA00F08001204613
:10511000BDE8B040AFF3008080B5D0F8C802FCF71E
:10512000BFFFBDE88040FFF7D1BD000080B5D0F8DB
:10513000C802FDF713FCBDE88040FFF7C7BD0000C3
:1051400090F89C1280F89D12042180F89C12002097
:105150007047000080B5D0F8C802FCF7D7FFBDE863
:105160008040FFF7B3BD0000B0B50C46054620787F
:10517000287060786870A01CFEF782FE6880201D91
:10518000FEF77EFEA880A01DFEF77AFEE880B0BD87
:1051900010B582B004460020ADF80600A9B1C4F8ED
:1051A000B812D4F8D40204F52E7151F82000C16A67
:1051B00021B10DF106008847C4F8D002D4F8D80216
:1051C0000130C4F8D802002000E00320C0B202B0D1
:1051D00010BD0000B0B50446888840B9C88830B911
:1051E00048887F2803D894F89C12032904D12046CC
:1051F000BDE8B040FFF7A2BB00F07F0584F89E52E7
:10520000E9B22046FFF74EFF2046FFF7CBFB012017
:10521000002D18BF022084F89C02B0BDD0F8B8223F
:10522000002A04BF0020704712681047B0B504463A
:10523000488840F25815C2F20005287000F0FE00C0
:10524000022803D32046FFF779FB31E094F89C0253
:1052500003280DD0022824D12978A1B3616020460B
:10526000FFF7DCFF054620469DB3FFF767FB16E01E
:10527000297801B36068884225D0C1B22046FFF783
:1052800029FB297861602046FFF7C8FF0546D5B1A4
:105290002046FFF753FB21792046FFF71BFB022036
:1052A0001AE02046FFF74AFB29782046FFF712FB59
:1052B00003252846B0BD022084F89C02297861604D
:1052C0002046FFF707FB2046FFF76CFB002528462A
:1052D000B0BDFFF767FB032084F89C022846B0BDF1
:1052E00080B54A88022A07D0012A0BD10121C0F8D3
:1052F000A412FFF757FB80BD497980F8A012FFF791
:1053000051FB80BDBDE88040FFF718BBFFF70EBF23
:1053100080B50A7812F060020DD0402A18BF202A0A
:1053200017D1D0F8D42200EB8202D2F8B8229268CA
:10533000BDE8804010474A78092A0AD8DFE802F021
:10534000050D091109152109191DFFF781FC002020
:1053500080BDFFF7F3FA002080BDFFF7C5FA0020FB
:1053600080BDFFF7BDFF002080BDFFF733FF0020A9
:1053700080BDFFF791FB002080BDBDE88040FFF7B6
:1053800055BFFFF7A9FB002080BD000070B50E4699
:1053900004463078357910F0600015D0402818BFE9
:1053A000202822D120462946FFF7B4FA00BBC4F8D2
:1053B000D40204EB8000D0F8B8028268C2B1204663
:1053C0003146BDE870401047707898B101282DD063
:1053D00003286FD194F89C0203283BD0022869D19E
:1053E00045F08000802865D02AE02046FFF7A6FA25
:1053F000002070BD94F89C0203283CD0022804BF12
:1054000045F08000802855D104F5AA7015F0800F72
:1054100018BF04F1140005F07F0101EB81010022A7
:1054200040F8212000EB8101204670E094F89C02B6
:10543000032844D002283DD145F08000802839D08F
:1054400020462946FFF768FE20468021FFF764FECC
:10545000002070BD708848B945F08000802805D0D4
:10546000F08818B920462946FFF756FE2046FFF778
:1054700099FA002070BD05F00F0101EB810104EBEA
:10548000810115F080000CBFB1F86411898C89B1DD
:1054900004F5AA71002818BF04F1140105F07F007B
:1054A00000EB800001EB800645F08000802824D1CD
:1054B000002029E02046FFF741FA002070BD7088E7
:1054C000002895D1680603D020462946FFF724FC22
:1054D0002046FFF767FA20462946FFF71BFA002807
:1054E0007FF486AFC4F8D40204EB8000D0F8B80291
:1054F0008268002A7FF463AF7AE720462946FFF7E7
:1055000019FD002818BF01203060204631460222D4
:10551000FFF73AFA002070BDB0B50D460446287872
:1055200010F0600018BF402801D0202815D194F851
:105530009C02013802280BD8A88800F0FE0101293E
:1055400006D8C1B22046FFF7E7F958B10320B0BD35
:105550002046FFF7F3F90020B0BD2046FFF7EEF933
:105560000020B0BD04EB8001D1F8B8229268002A77
:10557000ECD001F52E71C4F8D40208688268204688
:1055800029469047002804BFE9880029E9D1204630
:10559000FFF708FA0020B0BD7047000040F25C3011
:1055A000C2F2000070470000B0B50D784C7805F0ED
:1055B0000F02012303FA02F24FEA451E48F2000CE3
:1055C000C1F2000C012C1CD1D0F81C381A43C0F8D1
:1055D0001C2800F5106050F80E2012F4004F2AD15C
:1055E0000A79C9685EF800306FF3DF2141EA85511E
:1055F000194341EA824141EA0C014EF800100020B3
:10560000B0BDD0F81C3843EA0242C0F81C2800F5AF
:10561000306050F80E2012F4004F0CD10A79C9689E
:105620005EF800306FF3DF21194341EA824141EA1D
:105630000C014EF800100020B0BD0000D0F8001999
:1056400040F2FF729143C0F80019D0F8041841F4F9
:105650008071C0F8041800207047000070B504463F
:105660000698049D012819D10D98A16B21F4803171
:10567000A163E1684FF6BF72CFF6BD721140E160E1
:10568000E16821F44011E160012802BFE06840F4C4
:105690008010E060204600F01DF80FE00A9EE068F0
:1056A00040F04000E060204600F014F8A16B21F4C7
:1056B0008032002E08BF41F48032A263012D18BF52
:1056C00070BDA16841F00601A160A16841F0200110
:1056D000A16070BD81B00021009140F64051C0F240
:1056E000030100BF009A01320092009A8A4215D845
:1056F0000269B2F1FF3FF5DC00220092026942F03C
:1057000001020261009A01320092009A8A4207D88F
:10571000026912F0010FF5D1002002E0032000E041
:105720000320C0B201B0704710B50A784B7852011F
:1057300047F6000CCEF6334C0244012B09D102F59A
:105740001063D2F80029B2F1FF3F0EDD4FF0010ED9
:1057500020E002F53063D2F8002B0CF1707CB2F13E
:10576000FF3F0DDD4FF4803E14E01A6842F0006206
:105770001A601A6842F080421A604FF0010E09E088
:105780001A6842F000621A601A6842F080421A6099
:105790004FF4803E0A7802F00F020EFA02F2D0F8BF
:1057A0003C4824EA0202C0F83C28097801F00F01C5
:1057B0000EFA01F1D0F81C2822EA0101C0F81C18E9
:1057C000186800EA0C001860002010BDD0F8001E18
:1057D00021F00301C0F8001ED0F8041821F00201E6
:1057E000C0F8041800207047D0F8001E21F0030113
:1057F000C0F8001ED0F8041841F00201C0F80418E7
:10580000002070472DE9F0470D4604464121DDF8A0
:105810003CA0DDE90A08DDF82090002244F82120B0
:1058200001315029FAD1BAF1000F07D0A16B21F450
:105830000011A163A16B41F4002110E0D4F8041819
:1058400041F00201C4F80418A16B41F40011A163F6
:10585000A16B21F40021A163A16B21F48021A1633C
:105860000021C4F8001ED4F80018C4F8001801285C
:1058700005D12046002B14BF0121002101E0204664
:10588000032100F09FFB2046102100F0B7FA0646E6
:10589000204600F08BFA4FF0000CC4F810C8C4F892
:1058A00014C8C4F81CC8304318BF01207DB304F5E8
:1058B00010624FF67F330026002E4FF0904708BF4E
:1058C0004FF00067116807EAE1711160C2F810C07B
:1058D000936020320136B542EED1C5B104F5306295
:1058E0004FF0000E4FF67F36002700BF002F4FF01D
:1058F000904108BF4FF00061136801EAE371116045
:10590000C2F810E0966020320137BD42EED1D4F8E3
:10591000101821F48071C4F81018C4F818C06FF082
:1059200080416161B9F1000F02BFA16941F010012E
:10593000A161A16943F60002C8F23C0241EA0201FA
:10594000A161B8F1000F1EBFA16941F00801A1617A
:10595000BAF1010F01BFA16941F0804141F004019A
:10596000A161BDE8F0870000816821F0010181603C
:1059700000207047B0B50B784C785B014FF6FF7C88
:10598000CEF2070C40F2000ECFF6F87E012C1FD1AC
:10599000C41804F510638D69D4F81049F5B304EA0E
:1059A0000E051D611D6905EA0C051D61CC688D6938
:1059B000A54288BF8C611D6945F400251D618D6974
:1059C0000CF1005405EA04051C6944EA050C2FE0BB
:1059D0001844D0F8103B03EA0E03C0F8103BD0F88F
:1059E000103B03EA0C03C0F8103B00F53063C868B5
:1059F0008D69002D18BF8861C861186940F40020C6
:105A00001861C8690CF1005500EA05001D6940EAFB
:105A100005001861012A13D108690EE004EA0C059B
:105A20001D611D6945F400251D611D6905EA0E0C07
:105A3000C3F810C0012A0AD14869002818BF58616C
:105A40004FF004411868084318600020B0BD1A6880
:105A500042F004421A608A69002AF6D0097801F0FF
:105A60000F01012202FA01F100F63403EAE7000017
:105A7000D0F840C043F20B03C4F654739C4503D3E3
:105A8000D0F8003B002B1EDB0023C0F8103BD0F801
:105A9000103B43F40023C0F8103BD0F8103B43F018
:105AA0001803C0F8103BD0F8103B43F0C043C0F8D7
:105AB000103B012901BFC0F8142BD0F8001B41F0A6
:105AC0008021C0F8001B0020704700000A784B7846
:105AD0005201012B10D100F51060835823F40013FC
